:020000040800F2
:10000000680600202902000889030008810300080F
:1000100085030008E3020008B104000800000000A6
:10002000000000000000000000000000AD03000818
:10003000E7020008000000008B0300082904000804
:10004000430200084302000843020008430200087C
:10005000430200084302000843020008430200086C
:10006000430200084302000843020008430200085C
:10007000430200084302000843020008430200084C
:10008000430200084302000843020008430200083C
:10009000430200084302000843020008430200082C
:1000A000430200084302000843020008430200081C
:1000B000430200084302000843020008430200080C
:1000C00043020008430200084302000843020008FC
:1000D00043020008430200084302000843020008EC
:1000E00043020008430200084302000843020008DC
:1000F00043020008430200084302000843020008CC
:1001000000000000000000000000000043020008A2
:1001100043020008430200084302000843020008AB
:10012000430200084302000843020008430200089B
:100130004302000843020008000000000000000025
:1001400043020008430200084302000800000000C8
:10015000000000000000000000000000000000009F
:1001600000000000000000004302000843020008F5
:100170004302000800000000000000000000000032
:10018000000000004302000800F002F800F03CF814
:100190000AA090E8000C82448344AAF10107DA45E2
:1001A00001D100F031F8AFF2090EBAE80F0013F0F8
:1001B000010F18BFFB1A43F001031847BC030000EE
:1001C000DC030000103A24BF78C878C1FAD852077F
:1001D00024BF30C830C144BF04680C6070470000C1
:1001E0000023002400250026103A28BF78C1FBD840
:1001F000520728BF30C148BF0B6070471FB500F0E1
:10020000B5F91FBD10B510BD00F031F81146FFF76C
:10021000F5FF00F04FF900F04FF803B4FFF7F2FFDD
:1002200003BC00F057F80000094880470948004720
:10023000FEE7FEE7FEE7FEE7FEE7FEE7FEE7FEE796
:10024000FEE7FEE704480549054A064B70470000F3
:100250002D040008890100086800002068060020BD
:10026000680200206802002070477047704775469A
:1002700000F02CF8AE4605006946534620F0070012
:10028000854618B020B5FFF7DDFFBDE820404FF0F0
:1002900000064FF000074FF000084FF0000B21F070
:1002A0000701AC46ACE8C009ACE8C009ACE8C0093D
:1002B000ACE8C0098D46704710B50446AFF3008026
:1002C0002046BDE81040FFF7A8BF00000048704777
:1002D0000800002001491820ABBEFEE726000200FE
:1002E000704700BFFEE77047F0B50A4600210023C3
:1002F000002400BF3DE0012505FA01F3156805EA79
:1003000003049C4234D11579012D02D01579022DB8
:1003100016D185684F000326BE40B54385605579E8
:100320004E00B540866835438560868801258D403E
:10033000AE438680868895798D40ADB22E43868007
:1003400005684F000326BE40B543056015794E0091
:10035000B540066835430560C5684F000326BE40BA
:10036000B543C560D5794E00B540C6683543C56014
:10037000491C1029BFD3F0BD0185704781617047CA
:1003800000BFFEE700BFFEE77047704729B1064A8D
:1003900052690243044B5A6104E0034A52698243A2
:1003A000014B5A6170470000001002407047000086
:1003B00002201B4908601B4840681A4948600846EB
:1003C000406848600846406840F4806048600846DD
:1003D000406820F47C1048600846406840F4601093
:1003E00048600846006840F08070086000BF0D4813
:1003F000006800F000700028F9D00A48406820F03A
:100400000300084948600846406840F00200486020
:1004100000BF0448406800F00C000828F9D170477C
:1004200000200240001002407047000010B51B4839
:10043000006840F47000194908601948006840F0ED
:1004400001001749086008464068164908401449E9
:100450004860084600681449084011490860084689
:10046000006820F4802008600846406820F4FE0000
:1004700048600846C06A20F00F00C8620846006B5A
:100480000A4908400649086300208860FFF790FF8A
:100490004FF0006001498039086010BD88ED00E030
:1004A000001002400CC07FF8FFFFF6FECCFC00FFFE
:1004B00000BFFEE71CB501214804FFF767FF0121DB
:1004C000C804FFF763FF01208DF8040000208DF8B9
:1004D00006008DF8070001208DF80500202000900F
:1004E00069464FF09040FFF7FFFE00208DF80400B2
:1004F0004FF40050009069460A48FFF7F5FE0FE000
:1005000020214FF09040FFF739FF042000F00CF855
:1005100020214FF09040FFF72FFF042000F004F857
:10052000EEE700000008004800210E4A116013E0C9
:1005300000210D4A116004E00B490968491C0A4A70
:100540001160094909684FF6FF729142F4D30549D9
:100550000968491C034A1160024909680529E7D363
:100560007047000004000020000000204FF04070A1
:10057000E1EE100A70470000980500080000002016
:1005800008000000C4010008A005000808000020C1
:1005900060060000E001000800000000000000000C
:040000050800018965
:00000001FF
